{"abi":[{"type":"constructor","inputs":[{"name":"subscriptionId","type":"uint256","internalType":"uint256"},{"name":"gasLane","type":"bytes32","internalType":"bytes32"},{"name":"interval","type":"uint256","internalType":"uint256"},{"name":"entranceFee","type":"uint256","internalType":"uint256"},{"name":"callbackGasLimit","type":"uint32","internalType":"uint32"},{"name":"vrfCoordinatorV2","type":"address","internalType":"address"}],"stateMutability":"nonpayable"},{"type":"function","name":"acceptOwnership","inputs":[],"outputs":[],"stateMutability":"nonpayable"},{"type":"function","name":"checkUpkeep","inputs":[{"name":"","type":"bytes","internalType":"bytes"}],"outputs":[{"name":"upkeepNeeded","type":"bool","internalType":"bool"},{"name":"","type":"bytes","internalType":"bytes"}],"stateMutability":"view"},{"type":"function","name":"enterRaffle","inputs":[],"outputs":[],"stateMutability":"payable"},{"type":"function","name":"getContractAddress","inputs":[],"outputs":[{"name":"","type":"address","internalType":"address"}],"stateMutability":"view"},{"type":"function","name":"getEntranceFee","inputs":[],"outputs":[{"name":"","type":"uint256","internalType":"uint256"}],"stateMutability":"view"},{"type":"function","name":"getInterval","inputs":[],"outputs":[{"name":"","type":"uint256","internalType":"uint256"}],"stateMutability":"view"},{"type":"function","name":"getLastTimeStamp","inputs":[],"outputs":[{"name":"","type":"uint256","internalType":"uint256"}],"stateMutability":"view"},{"type":"function","name":"getNumWords","inputs":[],"outputs":[{"name":"","type":"uint256","internalType":"uint256"}],"stateMutability":"pure"},{"type":"function","name":"getNumberOfPlayers","inputs":[],"outputs":[{"name":"","type":"uint256","internalType":"uint256"}],"stateMutability":"view"},{"type":"function","name":"getPlayer","inputs":[{"name":"index","type":"uint256","internalType":"uint256"}],"outputs":[{"name":"","type":"address","internalType":"address"}],"stateMutability":"view"},{"type":"function","name":"getRaffleState","inputs":[],"outputs":[{"name":"","type":"uint8","internalType":"enum Raffle.RaffleState"}],"stateMutability":"view"},{"type":"function","name":"getRecentWinner","inputs":[],"outputs":[{"name":"","type":"address","internalType":"address"}],"stateMutability":"view"},{"type":"function","name":"getRequestConfirmations","inputs":[],"outputs":[{"name":"","type":"uint256","internalType":"uint256"}],"stateMutability":"pure"},{"type":"function","name":"owner","inputs":[],"outputs":[{"name":"","type":"address","internalType":"address"}],"stateMutability":"view"},{"type":"function","name":"performUpkeep","inputs":[{"name":"","type":"bytes","internalType":"bytes"}],"outputs":[],"stateMutability":"nonpayable"},{"type":"function","name":"rawFulfillRandomWords","inputs":[{"name":"requestId","type":"uint256","internalType":"uint256"},{"name":"randomWords","type":"uint256[]","internalType":"uint256[]"}],"outputs":[],"stateMutability":"nonpayable"},{"type":"function","name":"s_vrfCoordinator","inputs":[],"outputs":[{"name":"","type":"address","internalType":"contract IVRFCoordinatorV2Plus"}],"stateMutability":"view"},{"type":"function","name":"setCoordinator","inputs":[{"name":"_vrfCoordinator","type":"address","internalType":"address"}],"outputs":[],"stateMutability":"nonpayable"},{"type":"function","name":"transferOwnership","inputs":[{"name":"to","type":"address","internalType":"address"}],"outputs":[],"stateMutability":"nonpayable"},{"type":"event","name":"CoordinatorSet","inputs":[{"name":"vrfCoordinator","type":"address","indexed":false,"internalType":"address"}],"anonymous":false},{"type":"event","name":"OwnershipTransferRequested","inputs":[{"name":"from","type":"address","indexed":true,"internalType":"address"},{"name":"to","type":"address","indexed":true,"internalType":"address"}],"anonymous":false},{"type":"event","name":"OwnershipTransferred","inputs":[{"name":"from","type":"address","indexed":true,"internalType":"address"},{"name":"to","type":"address","indexed":true,"internalType":"address"}],"anonymous":false},{"type":"event","name":"RaffleEnter","inputs":[{"name":"player","type":"address","indexed":true,"internalType":"address"}],"anonymous":false},{"type":"event","name":"RequestedRaffleWinner","inputs":[{"name":"requestId","type":"uint256","indexed":true,"internalType":"uint256"}],"anonymous":false},{"type":"event","name":"WinnerPicked","inputs":[{"name":"player","type":"address","indexed":true,"internalType":"address"}],"anonymous":false},{"type":"error","name":"OnlyCoordinatorCanFulfill","inputs":[{"name":"have","type":"address","internalType":"address"},{"name":"want","type":"address","internalType":"address"}]},{"type":"error","name":"OnlyOwnerOrCoordinator","inputs":[{"name":"have","type":"address","internalType":"address"},{"name":"owner","type":"address","internalType":"address"},{"name":"coordinator","type":"address","internalType":"address"}]},{"type":"error","name":"Raffle__RaffleNotOpen","inputs":[]},{"type":"error","name":"Raffle__SendMoreToEnterRaffle","inputs":[]},{"type":"error","name":"Raffle__TransferFailed","inputs":[]},{"type":"error","name":"Raffle__UpkeepNotNeeded","inputs":[{"name":"currentBalance","type":"uint256","internalType":"uint256"},{"name":"numPlayers","type":"uint256","internalType":"uint256"},{"name":"raffleState","type":"uint256","internalType":"uint256"}]},{"type":"error","name":"ZeroAddress","inputs":[]}],"bytecode":{"object":"0x61012060405234801561001157600080fd5b506040516112aa3803806112aa833981016040819052610030916101e0565b8033806000816100875760405162461bcd60e51b815260206004820152601860248201527f43616e6e6f7420736574206f776e657220746f207a65726f000000000000000060448201526064015b60405180910390fd5b600080546001600160a01b0319166001600160a01b03848116919091179091558116156100b7576100b781610137565b5050506001600160a01b0381166100e15760405163d92e233d60e01b815260040160405180910390fd5b600280546001600160a01b0319166001600160a01b03929092169190911790555060a09390935260e091909152608092909252610100919091526006805460ff191690554260035563ffffffff1660c052610254565b336001600160a01b0382160361018f5760405162461bcd60e51b815260206004820152601760248201527f43616e6e6f74207472616e7366657220746f2073656c66000000000000000000604482015260640161007e565b600180546001600160a01b0319166001600160a01b0383811691821790925560008054604051929316917fed8889f560326eb138920d842192f0eb3dd22b4f139c87a2c57538e05bae12789190a350565b60008060008060008060c087890312156101f957600080fd5b86519550602087015194506040870151935060608701519250608087015163ffffffff8116811461022957600080fd5b60a08801519092506001600160a01b038116811461024657600080fd5b809150509295509295509295565b60805160a05160c05160e051610100516110046102a66000396000818161012801526103c70152600081816102c201526106a50152600061058e015260006105360152600061055901526110046000f3fe6080604052600436106101145760003560e01c80636e04ff0d116100a05780639eccacf6116100645780639eccacf6146102e6578063c1c244e814610306578063e55ae4e81461031b578063f2fde38b1461033b578063fd6673f51461035b57600080fd5b80636e04ff0d1461023257806379ba5097146102605780638da5cb5b146102755780638ea981171461029357806391ad27b4146102b357600080fd5b806332a2c5d0116100e757806332a2c5d0146101a55780634585e33b146101cc578063473f1ddc146101ec57806353a2c19a1461020a5780635f1b0fd81461021e57600080fd5b806309bc33a714610119578063115cbaf51461015b5780631fe543e31461017b5780632cfcc5391461019d575b600080fd5b34801561012557600080fd5b507f00000000000000000000000000000000000000000000000000000000000000005b6040519081526020015b60405180910390f35b34801561016757600080fd5b5060065460ff166040516101529190610c67565b34801561018757600080fd5b5061019b610196366004610c8f565b610370565b005b61019b6103c5565b3480156101b157600080fd5b50305b6040516001600160a01b039091168152602001610152565b3480156101d857600080fd5b5061019b6101e7366004610d0e565b6104ab565b3480156101f857600080fd5b506004546001600160a01b03166101b4565b34801561021657600080fd5b506001610148565b34801561022a57600080fd5b506003610148565b34801561023e57600080fd5b5061025261024d366004610d96565b61067d565b604051610152929190610e8d565b34801561026c57600080fd5b5061019b610722565b34801561028157600080fd5b506000546001600160a01b03166101b4565b34801561029f57600080fd5b5061019b6102ae366004610eb0565b6107cc565b3480156102bf57600080fd5b507f0000000000000000000000000000000000000000000000000000000000000000610148565b3480156102f257600080fd5b506002546101b4906001600160a01b031681565b34801561031257600080fd5b50600354610148565b34801561032757600080fd5b506101b4610336366004610ee0565b6108be565b34801561034757600080fd5b5061019b610356366004610eb0565b6108ee565b34801561036757600080fd5b50600554610148565b6002546001600160a01b031633146103b55760025460405163073e64fd60e21b81523360048201526001600160a01b0390911660248201526044015b60405180910390fd5b6103c0838383610902565b505050565b7f00000000000000000000000000000000000000000000000000000000000000003410156104065760405163181c600560e11b815260040160405180910390fd5b600060065460ff16600181111561041f5761041f610c51565b1461043d5760405163349289c560e21b815260040160405180910390fd5b6005805460018101825560009182527f036b6384b5eca791c62761152d0c79bb0604c104a5fb6f4eb0703f3154bb3db00180546001600160a01b0319163390811790915560405190917f0805e1d667bddb8a95f0f09880cf94f403fb596ce79928d9f29b74203ba284d491a2565b60006104c56040518060200160405280600081525061067d565b509050806105145760055460065447919060ff1660018111156104ea576104ea610c51565b604051632c2193d560e11b81526004810193909352602483019190915260448201526064016103ac565b600680546001919060ff1916828002179055506002546040805160c0810182527f000000000000000000000000000000000000000000000000000000000000000081527f000000000000000000000000000000000000000000000000000000000000000060208083019190915260038284015263ffffffff7f00000000000000000000000000000000000000000000000000000000000000001660608301526001608083015282519081019092526000808352926001600160a01b031691639b1c385e919060a08201906105e790610a68565b8152506040518263ffffffff1660e01b81526004016106069190610ef9565b6020604051808303816000875af1158015610625573d6000803e3d6000fd5b505050506040513d601f19601f820116820180604052508101906106499190610f56565b60405190915081907fcd6e45c8998311cab7e9d4385596cac867e20a0587194b954fa3a731c93ce78b90600090a250505050565b600654600090606090829060ff16600181111561069c5761069c610c51565b600014905060007f0000000000000000000000000000000000000000000000000000000000000000600354426106d29190610f6f565b6005549110915015154715158280156106e85750835b80156106f15750805b80156106fa5750815b60408051808201909152600381526203078360ec1b6020820152909890975095505050505050565b6001546001600160a01b031633146107755760405162461bcd60e51b815260206004820152601660248201527526bab9ba10313290383937b837b9b2b21037bbb732b960511b60448201526064016103ac565b60008054336001600160a01b0319808316821784556001805490911690556040516001600160a01b0390921692909183917f8be0079c531659141344cd1fd0a4f28419497f9722a3daafe3b4186f6b6457e091a350565b6000546001600160a01b031633148015906107f257506002546001600160a01b03163314155b15610843573361080a6000546001600160a01b031690565b60025460405163061db9c160e01b81526001600160a01b03938416600482015291831660248301529190911660448201526064016103ac565b6001600160a01b03811661086a5760405163d92e233d60e01b815260040160405180910390fd5b600280546001600160a01b0319166001600160a01b0383169081179091556040519081527fd1a6a14209a385a964d036e404cb5cfb71f4000cdb03c9366292430787261be69060200160405180910390a150565b6000600582815481106108d3576108d3610f96565b6000918252602090912001546001600160a01b031692915050565b6108f6610ad9565b6108ff81610b2e565b50565b6005546000908383838161091857610918610f96565b905060200201356109299190610fac565b905060006005828154811061094057610940610f96565b6000918252602082200154600480546001600160a01b0319166001600160a01b0390921691821790559150604051908082528060200260200182016040528015610994578160200160208202803683370190505b5080516109a991600591602090910190610bd7565b506006805460ff19169055426003556040516001600160a01b038216907f5b690ec4a06fe979403046eaeea5b3ce38524683c3001f662c8b5a829632f7df90600090a26000816001600160a01b03164760405160006040518083038185875af1925050503d8060008114610a39576040519150601f19603f3d011682016040523d82523d6000602084013e610a3e565b606091505b5050905080610a605760405163a1d04b3960e01b815260040160405180910390fd5b505050505050565b60607f92fd13387c7fe7befbc38d303d6468778fb9731bc4583f17d92989c6fcfdeaaa82604051602401610aa191511515815260200190565b60408051601f198184030181529190526020810180516001600160e01b03166001600160e01b03199093169290921790915292915050565b6000546001600160a01b03163314610b2c5760405162461bcd60e51b815260206004820152601660248201527527b7363c9031b0b63630b1363290313c9037bbb732b960511b60448201526064016103ac565b565b336001600160a01b03821603610b865760405162461bcd60e51b815260206004820152601760248201527f43616e6e6f74207472616e7366657220746f2073656c6600000000000000000060448201526064016103ac565b600180546001600160a01b0319166001600160a01b0383811691821790925560008054604051929316917fed8889f560326eb138920d842192f0eb3dd22b4f139c87a2c57538e05bae12789190a350565b828054828255906000526020600020908101928215610c2c579160200282015b82811115610c2c57825182546001600160a01b0319166001600160a01b03909116178255602090920191600190910190610bf7565b50610c38929150610c3c565b5090565b5b80821115610c385760008155600101610c3d565b634e487b7160e01b600052602160045260246000fd5b6020810160028310610c8957634e487b7160e01b600052602160045260246000fd5b91905290565b600080600060408486031215610ca457600080fd5b83359250602084013567ffffffffffffffff80821115610cc357600080fd5b818601915086601f830112610cd757600080fd5b813581811115610ce657600080fd5b8760208260051b8501011115610cfb57600080fd5b6020830194508093505050509250925092565b60008060208385031215610d2157600080fd5b823567ffffffffffffffff80821115610d3957600080fd5b818501915085601f830112610d4d57600080fd5b813581811115610d5c57600080fd5b866020828501011115610d6e57600080fd5b60209290920196919550909350505050565b634e487b7160e01b600052604160045260246000fd5b600060208284031215610da857600080fd5b813567ffffffffffffffff80821115610dc057600080fd5b818401915084601f830112610dd457600080fd5b813581811115610de657610de6610d80565b604051601f8201601f19908116603f01168101908382118183101715610e0e57610e0e610d80565b81604052828152876020848701011115610e2757600080fd5b826020860160208301376000928101602001929092525095945050505050565b6000815180845260005b81811015610e6d57602081850181015186830182015201610e51565b506000602082860101526020601f19601f83011685010191505092915050565b8215158152604060208201526000610ea86040830184610e47565b949350505050565b600060208284031215610ec257600080fd5b81356001600160a01b0381168114610ed957600080fd5b9392505050565b600060208284031215610ef257600080fd5b5035919050565b60208152815160208201526020820151604082015261ffff60408301511660608201526000606083015163ffffffff80821660808501528060808601511660a0850152505060a083015160c080840152610ea860e0840182610e47565b600060208284031215610f6857600080fd5b5051919050565b81810381811115610f9057634e487b7160e01b600052601160045260246000fd5b92915050565b634e487b7160e01b600052603260045260246000fd5b600082610fc957634e487b7160e01b600052601260045260246000fd5b50069056fea26469706673582212201ca8fbd34be6cfa8b0d7a24ff296a5598db34e33eb342ee132c14034e404381f64736f6c63430008130033","linkReferences":{}},"methodIdentifiers":{"acceptOwnership()":"79ba5097","checkUpkeep(bytes)":"6e04ff0d","enterRaffle()":"2cfcc539","getContractAddress()":"32a2c5d0","getEntranceFee()":"09bc33a7","getInterval()":"91ad27b4","getLastTimeStamp()":"c1c244e8","getNumWords()":"53a2c19a","getNumberOfPlayers()":"fd6673f5","getPlayer(uint256)":"e55ae4e8","getRaffleState()":"115cbaf5","getRecentWinner()":"473f1ddc","getRequestConfirmations()":"5f1b0fd8","owner()":"8da5cb5b","performUpkeep(bytes)":"4585e33b","rawFulfillRandomWords(uint256,uint256[])":"1fe543e3","s_vrfCoordinator()":"9eccacf6","setCoordinator(address)":"8ea98117","transferOwnership(address)":"f2fde38b"},"id":40}