{"abi":[{"type":"constructor","inputs":[{"name":"subscriptionId","type":"uint256","internalType":"uint256"},{"name":"gasLane","type":"bytes32","internalType":"bytes32"},{"name":"interval","type":"uint256","internalType":"uint256"},{"name":"entranceFee","type":"uint256","internalType":"uint256"},{"name":"callbackGasLimit","type":"uint32","internalType":"uint32"},{"name":"vrfCoordinatorV2","type":"address","internalType":"address"}],"stateMutability":"nonpayable"},{"type":"function","name":"acceptOwnership","inputs":[],"outputs":[],"stateMutability":"nonpayable"},{"type":"function","name":"checkUpkeep","inputs":[{"name":"","type":"bytes","internalType":"bytes"}],"outputs":[{"name":"upkeepNeeded","type":"bool","internalType":"bool"},{"name":"","type":"bytes","internalType":"bytes"}],"stateMutability":"view"},{"type":"function","name":"enterRaffle","inputs":[],"outputs":[],"stateMutability":"payable"},{"type":"function","name":"getEntranceFee","inputs":[],"outputs":[{"name":"","type":"uint256","internalType":"uint256"}],"stateMutability":"view"},{"type":"function","name":"getInterval","inputs":[],"outputs":[{"name":"","type":"uint256","internalType":"uint256"}],"stateMutability":"view"},{"type":"function","name":"getLastTimeStamp","inputs":[],"outputs":[{"name":"","type":"uint256","internalType":"uint256"}],"stateMutability":"view"},{"type":"function","name":"getNumWords","inputs":[],"outputs":[{"name":"","type":"uint256","internalType":"uint256"}],"stateMutability":"pure"},{"type":"function","name":"getNumberOfPlayers","inputs":[],"outputs":[{"name":"","type":"uint256","internalType":"uint256"}],"stateMutability":"view"},{"type":"function","name":"getPlayer","inputs":[{"name":"index","type":"uint256","internalType":"uint256"}],"outputs":[{"name":"","type":"address","internalType":"address"}],"stateMutability":"view"},{"type":"function","name":"getRaffleState","inputs":[],"outputs":[{"name":"","type":"uint8","internalType":"enum Raffle.RaffleState"}],"stateMutability":"view"},{"type":"function","name":"getRecentWinner","inputs":[],"outputs":[{"name":"","type":"address","internalType":"address"}],"stateMutability":"view"},{"type":"function","name":"getRequestConfirmations","inputs":[],"outputs":[{"name":"","type":"uint256","internalType":"uint256"}],"stateMutability":"pure"},{"type":"function","name":"owner","inputs":[],"outputs":[{"name":"","type":"address","internalType":"address"}],"stateMutability":"view"},{"type":"function","name":"performUpkeep","inputs":[{"name":"","type":"bytes","internalType":"bytes"}],"outputs":[],"stateMutability":"nonpayable"},{"type":"function","name":"rawFulfillRandomWords","inputs":[{"name":"requestId","type":"uint256","internalType":"uint256"},{"name":"randomWords","type":"uint256[]","internalType":"uint256[]"}],"outputs":[],"stateMutability":"nonpayable"},{"type":"function","name":"s_vrfCoordinator","inputs":[],"outputs":[{"name":"","type":"address","internalType":"contract IVRFCoordinatorV2Plus"}],"stateMutability":"view"},{"type":"function","name":"setCoordinator","inputs":[{"name":"_vrfCoordinator","type":"address","internalType":"address"}],"outputs":[],"stateMutability":"nonpayable"},{"type":"function","name":"transferOwnership","inputs":[{"name":"to","type":"address","internalType":"address"}],"outputs":[],"stateMutability":"nonpayable"},{"type":"event","name":"CoordinatorSet","inputs":[{"name":"vrfCoordinator","type":"address","indexed":false,"internalType":"address"}],"anonymous":false},{"type":"event","name":"OwnershipTransferRequested","inputs":[{"name":"from","type":"address","indexed":true,"internalType":"address"},{"name":"to","type":"address","indexed":true,"internalType":"address"}],"anonymous":false},{"type":"event","name":"OwnershipTransferred","inputs":[{"name":"from","type":"address","indexed":true,"internalType":"address"},{"name":"to","type":"address","indexed":true,"internalType":"address"}],"anonymous":false},{"type":"event","name":"RaffleEnter","inputs":[{"name":"player","type":"address","indexed":true,"internalType":"address"}],"anonymous":false},{"type":"event","name":"RequestedRaffleWinner","inputs":[{"name":"requestId","type":"uint256","indexed":true,"internalType":"uint256"}],"anonymous":false},{"type":"event","name":"WinnerPicked","inputs":[{"name":"player","type":"address","indexed":true,"internalType":"address"}],"anonymous":false},{"type":"error","name":"OnlyCoordinatorCanFulfill","inputs":[{"name":"have","type":"address","internalType":"address"},{"name":"want","type":"address","internalType":"address"}]},{"type":"error","name":"OnlyOwnerOrCoordinator","inputs":[{"name":"have","type":"address","internalType":"address"},{"name":"owner","type":"address","internalType":"address"},{"name":"coordinator","type":"address","internalType":"address"}]},{"type":"error","name":"Raffle__RaffleNotOpen","inputs":[]},{"type":"error","name":"Raffle__SendMoreToEnterRaffle","inputs":[]},{"type":"error","name":"Raffle__TransferFailed","inputs":[]},{"type":"error","name":"Raffle__UpkeepNotNeeded","inputs":[{"name":"currentBalance","type":"uint256","internalType":"uint256"},{"name":"numPlayers","type":"uint256","internalType":"uint256"},{"name":"raffleState","type":"uint256","internalType":"uint256"}]},{"type":"error","name":"ZeroAddress","inputs":[]}],"bytecode":{"object":"0x61012060405234801561001157600080fd5b5060405161128c38038061128c833981016040819052610030916101e0565b8033806000816100875760405162461bcd60e51b815260206004820152601860248201527f43616e6e6f7420736574206f776e657220746f207a65726f000000000000000060448201526064015b60405180910390fd5b600080546001600160a01b0319166001600160a01b03848116919091179091558116156100b7576100b781610137565b5050506001600160a01b0381166100e15760405163d92e233d60e01b815260040160405180910390fd5b600280546001600160a01b0319166001600160a01b03929092169190911790555060a09390935260e091909152608092909252610100919091526006805460ff191690554260035563ffffffff1660c052610254565b336001600160a01b0382160361018f5760405162461bcd60e51b815260206004820152601760248201527f43616e6e6f74207472616e7366657220746f2073656c66000000000000000000604482015260640161007e565b600180546001600160a01b0319166001600160a01b0383811691821790925560008054604051929316917fed8889f560326eb138920d842192f0eb3dd22b4f139c87a2c57538e05bae12789190a350565b60008060008060008060c087890312156101f957600080fd5b86519550602087015194506040870151935060608701519250608087015163ffffffff8116811461022957600080fd5b60a08801519092506001600160a01b038116811461024657600080fd5b809150509295509295509295565b60805160a05160c05160e05161010051610fe66102a66000396000818161011d01526103a90152600081816102a4015261068701526000610570015260006105180152600061053b0152610fe66000f3fe6080604052600436106101095760003560e01c806379ba5097116100955780639eccacf6116100645780639eccacf6146102c8578063c1c244e8146102e8578063e55ae4e8146102fd578063f2fde38b1461031d578063fd6673f51461033d57600080fd5b806379ba5097146102425780638da5cb5b146102575780638ea981171461027557806391ad27b41461029557600080fd5b80634585e33b116100dc5780634585e33b1461019a578063473f1ddc146101ba57806353a2c19a146101ec5780635f1b0fd8146102005780636e04ff0d1461021457600080fd5b806309bc33a71461010e578063115cbaf5146101505780631fe543e3146101705780632cfcc53914610192575b600080fd5b34801561011a57600080fd5b507f00000000000000000000000000000000000000000000000000000000000000005b6040519081526020015b60405180910390f35b34801561015c57600080fd5b5060065460ff166040516101479190610c49565b34801561017c57600080fd5b5061019061018b366004610c71565b610352565b005b6101906103a7565b3480156101a657600080fd5b506101906101b5366004610cf0565b61048d565b3480156101c657600080fd5b506004546001600160a01b03165b6040516001600160a01b039091168152602001610147565b3480156101f857600080fd5b50600161013d565b34801561020c57600080fd5b50600361013d565b34801561022057600080fd5b5061023461022f366004610d78565b61065f565b604051610147929190610e6f565b34801561024e57600080fd5b50610190610704565b34801561026357600080fd5b506000546001600160a01b03166101d4565b34801561028157600080fd5b50610190610290366004610e92565b6107ae565b3480156102a157600080fd5b507f000000000000000000000000000000000000000000000000000000000000000061013d565b3480156102d457600080fd5b506002546101d4906001600160a01b031681565b3480156102f457600080fd5b5060035461013d565b34801561030957600080fd5b506101d4610318366004610ec2565b6108a0565b34801561032957600080fd5b50610190610338366004610e92565b6108d0565b34801561034957600080fd5b5060055461013d565b6002546001600160a01b031633146103975760025460405163073e64fd60e21b81523360048201526001600160a01b0390911660248201526044015b60405180910390fd5b6103a28383836108e4565b505050565b7f00000000000000000000000000000000000000000000000000000000000000003410156103e85760405163181c600560e11b815260040160405180910390fd5b600060065460ff16600181111561040157610401610c33565b1461041f5760405163349289c560e21b815260040160405180910390fd5b6005805460018101825560009182527f036b6384b5eca791c62761152d0c79bb0604c104a5fb6f4eb0703f3154bb3db00180546001600160a01b0319163390811790915560405190917f0805e1d667bddb8a95f0f09880cf94f403fb596ce79928d9f29b74203ba284d491a2565b60006104a76040518060200160405280600081525061065f565b509050806104f65760055460065447919060ff1660018111156104cc576104cc610c33565b604051632c2193d560e11b815260048101939093526024830191909152604482015260640161038e565b600680546001919060ff1916828002179055506002546040805160c0810182527f000000000000000000000000000000000000000000000000000000000000000081527f000000000000000000000000000000000000000000000000000000000000000060208083019190915260038284015263ffffffff7f00000000000000000000000000000000000000000000000000000000000000001660608301526001608083015282519081019092526000808352926001600160a01b031691639b1c385e919060a08201906105c990610a4a565b8152506040518263ffffffff1660e01b81526004016105e89190610edb565b6020604051808303816000875af1158015610607573d6000803e3d6000fd5b505050506040513d601f19601f8201168201806040525081019061062b9190610f38565b60405190915081907fcd6e45c8998311cab7e9d4385596cac867e20a0587194b954fa3a731c93ce78b90600090a250505050565b600654600090606090829060ff16600181111561067e5761067e610c33565b600014905060007f0000000000000000000000000000000000000000000000000000000000000000600354426106b49190610f51565b6005549110915015154715158280156106ca5750835b80156106d35750805b80156106dc5750815b60408051808201909152600381526203078360ec1b6020820152909890975095505050505050565b6001546001600160a01b031633146107575760405162461bcd60e51b815260206004820152601660248201527526bab9ba10313290383937b837b9b2b21037bbb732b960511b604482015260640161038e565b60008054336001600160a01b0319808316821784556001805490911690556040516001600160a01b0390921692909183917f8be0079c531659141344cd1fd0a4f28419497f9722a3daafe3b4186f6b6457e091a350565b6000546001600160a01b031633148015906107d457506002546001600160a01b03163314155b1561082557336107ec6000546001600160a01b031690565b60025460405163061db9c160e01b81526001600160a01b039384166004820152918316602483015291909116604482015260640161038e565b6001600160a01b03811661084c5760405163d92e233d60e01b815260040160405180910390fd5b600280546001600160a01b0319166001600160a01b0383169081179091556040519081527fd1a6a14209a385a964d036e404cb5cfb71f4000cdb03c9366292430787261be69060200160405180910390a150565b6000600582815481106108b5576108b5610f78565b6000918252602090912001546001600160a01b031692915050565b6108d8610abb565b6108e181610b10565b50565b600554600090838383816108fa576108fa610f78565b9050602002013561090b9190610f8e565b905060006005828154811061092257610922610f78565b6000918252602082200154600480546001600160a01b0319166001600160a01b0390921691821790559150604051908082528060200260200182016040528015610976578160200160208202803683370190505b50805161098b91600591602090910190610bb9565b506006805460ff19169055426003556040516001600160a01b038216907f5b690ec4a06fe979403046eaeea5b3ce38524683c3001f662c8b5a829632f7df90600090a26000816001600160a01b03164760405160006040518083038185875af1925050503d8060008114610a1b576040519150601f19603f3d011682016040523d82523d6000602084013e610a20565b606091505b5050905080610a425760405163a1d04b3960e01b815260040160405180910390fd5b505050505050565b60607f92fd13387c7fe7befbc38d303d6468778fb9731bc4583f17d92989c6fcfdeaaa82604051602401610a8391511515815260200190565b60408051601f198184030181529190526020810180516001600160e01b03166001600160e01b03199093169290921790915292915050565b6000546001600160a01b03163314610b0e5760405162461bcd60e51b815260206004820152601660248201527527b7363c9031b0b63630b1363290313c9037bbb732b960511b604482015260640161038e565b565b336001600160a01b03821603610b685760405162461bcd60e51b815260206004820152601760248201527f43616e6e6f74207472616e7366657220746f2073656c66000000000000000000604482015260640161038e565b600180546001600160a01b0319166001600160a01b0383811691821790925560008054604051929316917fed8889f560326eb138920d842192f0eb3dd22b4f139c87a2c57538e05bae12789190a350565b828054828255906000526020600020908101928215610c0e579160200282015b82811115610c0e57825182546001600160a01b0319166001600160a01b03909116178255602090920191600190910190610bd9565b50610c1a929150610c1e565b5090565b5b80821115610c1a5760008155600101610c1f565b634e487b7160e01b600052602160045260246000fd5b6020810160028310610c6b57634e487b7160e01b600052602160045260246000fd5b91905290565b600080600060408486031215610c8657600080fd5b83359250602084013567ffffffffffffffff80821115610ca557600080fd5b818601915086601f830112610cb957600080fd5b813581811115610cc857600080fd5b8760208260051b8501011115610cdd57600080fd5b6020830194508093505050509250925092565b60008060208385031215610d0357600080fd5b823567ffffffffffffffff80821115610d1b57600080fd5b818501915085601f830112610d2f57600080fd5b813581811115610d3e57600080fd5b866020828501011115610d5057600080fd5b60209290920196919550909350505050565b634e487b7160e01b600052604160045260246000fd5b600060208284031215610d8a57600080fd5b813567ffffffffffffffff80821115610da257600080fd5b818401915084601f830112610db657600080fd5b813581811115610dc857610dc8610d62565b604051601f8201601f19908116603f01168101908382118183101715610df057610df0610d62565b81604052828152876020848701011115610e0957600080fd5b826020860160208301376000928101602001929092525095945050505050565b6000815180845260005b81811015610e4f57602081850181015186830182015201610e33565b506000602082860101526020601f19601f83011685010191505092915050565b8215158152604060208201526000610e8a6040830184610e29565b949350505050565b600060208284031215610ea457600080fd5b81356001600160a01b0381168114610ebb57600080fd5b9392505050565b600060208284031215610ed457600080fd5b5035919050565b60208152815160208201526020820151604082015261ffff60408301511660608201526000606083015163ffffffff80821660808501528060808601511660a0850152505060a083015160c080840152610e8a60e0840182610e29565b600060208284031215610f4a57600080fd5b5051919050565b81810381811115610f7257634e487b7160e01b600052601160045260246000fd5b92915050565b634e487b7160e01b600052603260045260246000fd5b600082610fab57634e487b7160e01b600052601260045260246000fd5b50069056fea26469706673582212204a86fb968537c7c8cfe1842311da27e50e03dd8941bab85adb589a6f7306026064736f6c63430008130033","linkReferences":{}},"methodIdentifiers":{"acceptOwnership()":"79ba5097","checkUpkeep(bytes)":"6e04ff0d","enterRaffle()":"2cfcc539","getEntranceFee()":"09bc33a7","getInterval()":"91ad27b4","getLastTimeStamp()":"c1c244e8","getNumWords()":"53a2c19a","getNumberOfPlayers()":"fd6673f5","getPlayer(uint256)":"e55ae4e8","getRaffleState()":"115cbaf5","getRecentWinner()":"473f1ddc","getRequestConfirmations()":"5f1b0fd8","owner()":"8da5cb5b","performUpkeep(bytes)":"4585e33b","rawFulfillRandomWords(uint256,uint256[])":"1fe543e3","s_vrfCoordinator()":"9eccacf6","setCoordinator(address)":"8ea98117","transferOwnership(address)":"f2fde38b"},"id":45}