{"abi":[{"type":"function","name":"revertWithError","inputs":[],"outputs":[],"stateMutability":"pure"},{"type":"function","name":"revertWithRequire","inputs":[],"outputs":[],"stateMutability":"pure"},{"type":"error","name":"ExampleRevert__Error","inputs":[]}],"bytecode":{"object":"0x6080604052348015600f57600080fd5b50606f80601d6000396000f3fe6080604052348015600f57600080fd5b506004361060325760003560e01c806357eca1a514603757806388eea4ed146037575b600080fd5b00fea2646970667358221220b29928b4a7efd602e28f62e33cf9344372e6c118c7f77fb166d661342e51144a64736f6c63430008130033","linkReferences":{}},"methodIdentifiers":{"revertWithError()":"57eca1a5","revertWithRequire()":"88eea4ed"},"id":48}