{"abi":[{"type":"constructor","inputs":[{"name":"_baseFee","type":"uint96","internalType":"uint96"},{"name":"_gasPrice","type":"uint96","internalType":"uint96"},{"name":"_weiPerUnitLink","type":"int256","internalType":"int256"}],"stateMutability":"nonpayable"},{"type":"function","name":"LINK","inputs":[],"outputs":[{"name":"","type":"address","internalType":"contract LinkTokenInterface"}],"stateMutability":"view"},{"type":"function","name":"LINK_NATIVE_FEED","inputs":[],"outputs":[{"name":"","type":"address","internalType":"contract AggregatorV3Interface"}],"stateMutability":"view"},{"type":"function","name":"MAX_CONSUMERS","inputs":[],"outputs":[{"name":"","type":"uint16","internalType":"uint16"}],"stateMutability":"view"},{"type":"function","name":"acceptOwnership","inputs":[],"outputs":[],"stateMutability":"nonpayable"},{"type":"function","name":"acceptSubscriptionOwnerTransfer","inputs":[{"name":"subId","type":"uint256","internalType":"uint256"}],"outputs":[],"stateMutability":"nonpayable"},{"type":"function","name":"addConsumer","inputs":[{"name":"subId","type":"uint256","internalType":"uint256"},{"name":"consumer","type":"address","internalType":"address"}],"outputs":[],"stateMutability":"nonpayable"},{"type":"function","name":"cancelSubscription","inputs":[{"name":"_subId","type":"uint256","internalType":"uint256"},{"name":"_to","type":"address","internalType":"address"}],"outputs":[],"stateMutability":"nonpayable"},{"type":"function","name":"consumerIsAdded","inputs":[{"name":"_subId","type":"uint256","internalType":"uint256"},{"name":"_consumer","type":"address","internalType":"address"}],"outputs":[{"name":"","type":"bool","internalType":"bool"}],"stateMutability":"view"},{"type":"function","name":"createSubscription","inputs":[],"outputs":[{"name":"subId","type":"uint256","internalType":"uint256"}],"stateMutability":"nonpayable"},{"type":"function","name":"fulfillRandomWords","inputs":[{"name":"_requestId","type":"uint256","internalType":"uint256"},{"name":"_consumer","type":"address","internalType":"address"}],"outputs":[],"stateMutability":"nonpayable"},{"type":"function","name":"fulfillRandomWordsWithOverride","inputs":[{"name":"_requestId","type":"uint256","internalType":"uint256"},{"name":"_consumer","type":"address","internalType":"address"},{"name":"_words","type":"uint256[]","internalType":"uint256[]"}],"outputs":[],"stateMutability":"nonpayable"},{"type":"function","name":"fundSubscription","inputs":[{"name":"_subId","type":"uint256","internalType":"uint256"},{"name":"_amount","type":"uint256","internalType":"uint256"}],"outputs":[],"stateMutability":"nonpayable"},{"type":"function","name":"fundSubscriptionWithNative","inputs":[{"name":"subId","type":"uint256","internalType":"uint256"}],"outputs":[],"stateMutability":"payable"},{"type":"function","name":"getActiveSubscriptionIds","inputs":[{"name":"startIndex","type":"uint256","internalType":"uint256"},{"name":"maxCount","type":"uint256","internalType":"uint256"}],"outputs":[{"name":"ids","type":"uint256[]","internalType":"uint256[]"}],"stateMutability":"view"},{"type":"function","name":"getSubscription","inputs":[{"name":"subId","type":"uint256","internalType":"uint256"}],"outputs":[{"name":"balance","type":"uint96","internalType":"uint96"},{"name":"nativeBalance","type":"uint96","internalType":"uint96"},{"name":"reqCount","type":"uint64","internalType":"uint64"},{"name":"subOwner","type":"address","internalType":"address"},{"name":"consumers","type":"address[]","internalType":"address[]"}],"stateMutability":"view"},{"type":"function","name":"i_base_fee","inputs":[],"outputs":[{"name":"","type":"uint96","internalType":"uint96"}],"stateMutability":"view"},{"type":"function","name":"i_gas_price","inputs":[],"outputs":[{"name":"","type":"uint96","internalType":"uint96"}],"stateMutability":"view"},{"type":"function","name":"i_wei_per_unit_link","inputs":[],"outputs":[{"name":"","type":"int256","internalType":"int256"}],"stateMutability":"view"},{"type":"function","name":"onTokenTransfer","inputs":[{"name":"","type":"address","internalType":"address"},{"name":"amount","type":"uint256","internalType":"uint256"},{"name":"data","type":"bytes","internalType":"bytes"}],"outputs":[],"stateMutability":"nonpayable"},{"type":"function","name":"owner","inputs":[],"outputs":[{"name":"","type":"address","internalType":"address"}],"stateMutability":"view"},{"type":"function","name":"ownerCancelSubscription","inputs":[{"name":"subId","type":"uint256","internalType":"uint256"}],"outputs":[],"stateMutability":"nonpayable"},{"type":"function","name":"pendingRequestExists","inputs":[{"name":"","type":"uint256","internalType":"uint256"}],"outputs":[{"name":"","type":"bool","internalType":"bool"}],"stateMutability":"pure"},{"type":"function","name":"recoverFunds","inputs":[{"name":"to","type":"address","internalType":"address"}],"outputs":[],"stateMutability":"nonpayable"},{"type":"function","name":"recoverNativeFunds","inputs":[{"name":"to","type":"address","internalType":"address payable"}],"outputs":[],"stateMutability":"nonpayable"},{"type":"function","name":"removeConsumer","inputs":[{"name":"_subId","type":"uint256","internalType":"uint256"},{"name":"_consumer","type":"address","internalType":"address"}],"outputs":[],"stateMutability":"nonpayable"},{"type":"function","name":"requestRandomWords","inputs":[{"name":"_req","type":"tuple","internalType":"struct VRFV2PlusClient.RandomWordsRequest","components":[{"name":"keyHash","type":"bytes32","internalType":"bytes32"},{"name":"subId","type":"uint256","internalType":"uint256"},{"name":"requestConfirmations","type":"uint16","internalType":"uint16"},{"name":"callbackGasLimit","type":"uint32","internalType":"uint32"},{"name":"numWords","type":"uint32","internalType":"uint32"},{"name":"extraArgs","type":"bytes","internalType":"bytes"}]}],"outputs":[{"name":"","type":"uint256","internalType":"uint256"}],"stateMutability":"nonpayable"},{"type":"function","name":"requestSubscriptionOwnerTransfer","inputs":[{"name":"subId","type":"uint256","internalType":"uint256"},{"name":"newOwner","type":"address","internalType":"address"}],"outputs":[],"stateMutability":"nonpayable"},{"type":"function","name":"s_config","inputs":[],"outputs":[{"name":"minimumRequestConfirmations","type":"uint16","internalType":"uint16"},{"name":"maxGasLimit","type":"uint32","internalType":"uint32"},{"name":"reentrancyLock","type":"bool","internalType":"bool"},{"name":"stalenessSeconds","type":"uint32","internalType":"uint32"},{"name":"gasAfterPaymentCalculation","type":"uint32","internalType":"uint32"},{"name":"fulfillmentFlatFeeNativePPM","type":"uint32","internalType":"uint32"},{"name":"fulfillmentFlatFeeLinkDiscountPPM","type":"uint32","internalType":"uint32"},{"name":"nativePremiumPercentage","type":"uint8","internalType":"uint8"},{"name":"linkPremiumPercentage","type":"uint8","internalType":"uint8"}],"stateMutability":"view"},{"type":"function","name":"s_currentSubNonce","inputs":[],"outputs":[{"name":"","type":"uint64","internalType":"uint64"}],"stateMutability":"view"},{"type":"function","name":"s_totalBalance","inputs":[],"outputs":[{"name":"","type":"uint96","internalType":"uint96"}],"stateMutability":"view"},{"type":"function","name":"s_totalNativeBalance","inputs":[],"outputs":[{"name":"","type":"uint96","internalType":"uint96"}],"stateMutability":"view"},{"type":"function","name":"setConfig","inputs":[],"outputs":[],"stateMutability":"nonpayable"},{"type":"function","name":"setLINKAndLINKNativeFeed","inputs":[{"name":"link","type":"address","internalType":"address"},{"name":"linkNativeFeed","type":"address","internalType":"address"}],"outputs":[],"stateMutability":"nonpayable"},{"type":"function","name":"transferOwnership","inputs":[{"name":"to","type":"address","internalType":"address"}],"outputs":[],"stateMutability":"nonpayable"},{"type":"function","name":"withdraw","inputs":[{"name":"recipient","type":"address","internalType":"address"}],"outputs":[],"stateMutability":"nonpayable"},{"type":"function","name":"withdrawNative","inputs":[{"name":"recipient","type":"address","internalType":"address payable"}],"outputs":[],"stateMutability":"nonpayable"},{"type":"event","name":"ConfigSet","inputs":[],"anonymous":false},{"type":"event","name":"FundsRecovered","inputs":[{"name":"to","type":"address","indexed":false,"internalType":"address"},{"name":"amount","type":"uint256","indexed":false,"internalType":"uint256"}],"anonymous":false},{"type":"event","name":"NativeFundsRecovered","inputs":[{"name":"to","type":"address","indexed":false,"internalType":"address"},{"name":"amount","type":"uint256","indexed":false,"internalType":"uint256"}],"anonymous":false},{"type":"event","name":"OwnershipTransferRequested","inputs":[{"name":"from","type":"address","indexed":true,"internalType":"address"},{"name":"to","type":"address","indexed":true,"internalType":"address"}],"anonymous":false},{"type":"event","name":"OwnershipTransferred","inputs":[{"name":"from","type":"address","indexed":true,"internalType":"address"},{"name":"to","type":"address","indexed":true,"internalType":"address"}],"anonymous":false},{"type":"event","name":"RandomWordsFulfilled","inputs":[{"name":"requestId","type":"uint256","indexed":true,"internalType":"uint256"},{"name":"outputSeed","type":"uint256","indexed":false,"internalType":"uint256"},{"name":"subId","type":"uint256","indexed":true,"internalType":"uint256"},{"name":"payment","type":"uint96","indexed":false,"internalType":"uint96"},{"name":"nativePayment","type":"bool","indexed":false,"internalType":"bool"},{"name":"success","type":"bool","indexed":false,"internalType":"bool"},{"name":"onlyPremium","type":"bool","indexed":false,"internalType":"bool"}],"anonymous":false},{"type":"event","name":"RandomWordsRequested","inputs":[{"name":"keyHash","type":"bytes32","indexed":true,"internalType":"bytes32"},{"name":"requestId","type":"uint256","indexed":false,"internalType":"uint256"},{"name":"preSeed","type":"uint256","indexed":false,"internalType":"uint256"},{"name":"subId","type":"uint256","indexed":true,"internalType":"uint256"},{"name":"minimumRequestConfirmations","type":"uint16","indexed":false,"internalType":"uint16"},{"name":"callbackGasLimit","type":"uint32","indexed":false,"internalType":"uint32"},{"name":"numWords","type":"uint32","indexed":false,"internalType":"uint32"},{"name":"extraArgs","type":"bytes","indexed":false,"internalType":"bytes"},{"name":"sender","type":"address","indexed":true,"internalType":"address"}],"anonymous":false},{"type":"event","name":"SubscriptionCanceled","inputs":[{"name":"subId","type":"uint256","indexed":true,"internalType":"uint256"},{"name":"to","type":"address","indexed":false,"internalType":"address"},{"name":"amountLink","type":"uint256","indexed":false,"internalType":"uint256"},{"name":"amountNative","type":"uint256","indexed":false,"internalType":"uint256"}],"anonymous":false},{"type":"event","name":"SubscriptionConsumerAdded","inputs":[{"name":"subId","type":"uint256","indexed":true,"internalType":"uint256"},{"name":"consumer","type":"address","indexed":false,"internalType":"address"}],"anonymous":false},{"type":"event","name":"SubscriptionConsumerRemoved","inputs":[{"name":"subId","type":"uint256","indexed":true,"internalType":"uint256"},{"name":"consumer","type":"address","indexed":false,"internalType":"address"}],"anonymous":false},{"type":"event","name":"SubscriptionCreated","inputs":[{"name":"subId","type":"uint256","indexed":true,"internalType":"uint256"},{"name":"owner","type":"address","indexed":false,"internalType":"address"}],"anonymous":false},{"type":"event","name":"SubscriptionFunded","inputs":[{"name":"subId","type":"uint256","indexed":true,"internalType":"uint256"},{"name":"oldBalance","type":"uint256","indexed":false,"internalType":"uint256"},{"name":"newBalance","type":"uint256","indexed":false,"internalType":"uint256"}],"anonymous":false},{"type":"event","name":"SubscriptionFundedWithNative","inputs":[{"name":"subId","type":"uint256","indexed":true,"internalType":"uint256"},{"name":"oldNativeBalance","type":"uint256","indexed":false,"internalType":"uint256"},{"name":"newNativeBalance","type":"uint256","indexed":false,"internalType":"uint256"}],"anonymous":false},{"type":"event","name":"SubscriptionOwnerTransferRequested","inputs":[{"name":"subId","type":"uint256","indexed":true,"internalType":"uint256"},{"name":"from","type":"address","indexed":false,"internalType":"address"},{"name":"to","type":"address","indexed":false,"internalType":"address"}],"anonymous":false},{"type":"event","name":"SubscriptionOwnerTransferred","inputs":[{"name":"subId","type":"uint256","indexed":true,"internalType":"uint256"},{"name":"from","type":"address","indexed":false,"internalType":"address"},{"name":"to","type":"address","indexed":false,"internalType":"address"}],"anonymous":false},{"type":"error","name":"BalanceInvariantViolated","inputs":[{"name":"internalBalance","type":"uint256","internalType":"uint256"},{"name":"externalBalance","type":"uint256","internalType":"uint256"}]},{"type":"error","name":"FailedToSendNative","inputs":[]},{"type":"error","name":"FailedToTransferLink","inputs":[]},{"type":"error","name":"IndexOutOfRange","inputs":[]},{"type":"error","name":"InsufficientBalance","inputs":[]},{"type":"error","name":"InvalidCalldata","inputs":[]},{"type":"error","name":"InvalidConsumer","inputs":[{"name":"subId","type":"uint256","internalType":"uint256"},{"name":"consumer","type":"address","internalType":"address"}]},{"type":"error","name":"InvalidExtraArgsTag","inputs":[]},{"type":"error","name":"InvalidRandomWords","inputs":[]},{"type":"error","name":"InvalidRequest","inputs":[]},{"type":"error","name":"InvalidSubscription","inputs":[]},{"type":"error","name":"LinkAlreadySet","inputs":[]},{"type":"error","name":"LinkNotSet","inputs":[]},{"type":"error","name":"MustBeRequestedOwner","inputs":[{"name":"proposedOwner","type":"address","internalType":"address"}]},{"type":"error","name":"MustBeSubOwner","inputs":[{"name":"owner","type":"address","internalType":"address"}]},{"type":"error","name":"NotImplemented","inputs":[]},{"type":"error","name":"OnlyCallableFromLink","inputs":[]},{"type":"error","name":"PendingRequestExists","inputs":[]},{"type":"error","name":"Reentrant","inputs":[]},{"type":"error","name":"TooManyConsumers","inputs":[]}],"bytecode":{"object":"0x60e06040526001600e556064600f553480156200001b57600080fd5b50604051620039ac380380620039ac8339810160408190526200003e91620002a7565b3380600081620000955760405162461bcd60e51b815260206004820152601860248201527f43616e6e6f7420736574206f776e657220746f207a65726f000000000000000060448201526064015b60405180910390fd5b600080546001600160a01b0319166001600160a01b0384811691909117909155811615620000c857620000c881620000f6565b5050506001600160601b03808416608052821660a05260c0819052620000ed620001a1565b505050620002e8565b336001600160a01b03821603620001505760405162461bcd60e51b815260206004820152601760248201527f43616e6e6f74207472616e7366657220746f2073656c6600000000000000000060448201526064016200008c565b600180546001600160a01b0319166001600160a01b0383811691821790925560008054604051929316917fed8889f560326eb138920d842192f0eb3dd22b4f139c87a2c57538e05bae12789190a350565b620001ab6200022c565b6040805161012081018252600080825260208201819052818301819052606082018190526080820181905260a0820181905260c0820181905260e08201819052610100909101819052600c80546001600160c81b031916905590517f4b2974a542484cba2783812ff8033f7fc682cac2fe0905c28c5e27869b3155be9190a1565b6000546001600160a01b03163314620002885760405162461bcd60e51b815260206004820152601660248201527f4f6e6c792063616c6c61626c65206279206f776e65720000000000000000000060448201526064016200008c565b565b80516001600160601b0381168114620002a257600080fd5b919050565b600080600060608486031215620002bd57600080fd5b620002c8846200028a565b9250620002d8602085016200028a565b9150604084015190509250925092565b60805160a05160c05161367f6200032d6000396000818161035f0152610b8f01526000818161078a0152610b160152600081816104180152610b61015261367f6000f3fe60806040526004361061020f5760003560e01c80638b673e7a11610118578063aefb212f116100a0578063dac83d291161006f578063dac83d2914610727578063dc311dd314610747578063dcab3dcf14610778578063e72f6e30146107ac578063f2fde38b146107cc57600080fd5b8063aefb212f1461069a578063b2a7cac5146106c7578063bec4c08c146106e7578063cb6317971461070757600080fd5b80639b1c385e116100e75780639b1c385e146105ed5780639d40a6fd1461060d578063a21a23e414610645578063a4c0ed361461065a578063aa433aff1461067a57600080fd5b80638b673e7a146105875780638da5cb5b1461059c578063953e9c75146105ba57806395b55cfc146105da57600080fd5b806341af6c871161019b57806372e9d5651161016a57806372e9d565146104f257806379ba509714610512578063808974ff146105275780638402595e1461054757806386fe91c71461056757600080fd5b806341af6c871461045a57806351cff8d91461048a57806364d51a2a146104aa57806365982744146104d257600080fd5b806313478329116101e2578063134783291461034d57806318e3dd271461038f5780631b6b6d23146103ce5780631eebc117146104065780632f622e6b1461043a57600080fd5b8063088070f51461021457806308e3898e146102eb5780630ae095401461030d578063115e3c0d1461032d575b600080fd5b34801561022057600080fd5b50600c546102899061ffff81169063ffffffff62010000820481169160ff600160301b82048116926701000000000000008304811692600160581b8104821692600160781b8204831692600160981b83041691600160b81b8104821691600160c01b9091041689565b6040805161ffff909a168a5263ffffffff98891660208b01529615159689019690965293861660608801529185166080870152841660a08601529290921660c084015260ff91821660e084015216610100820152610120015b60405180910390f35b3480156102f757600080fd5b5061030b610306366004612e94565b6107ec565b005b34801561031957600080fd5b5061030b610328366004612f57565b610c7c565b34801561033957600080fd5b5061030b610348366004612f87565b610d7c565b34801561035957600080fd5b506103817f000000000000000000000000000000000000000000000000000000000000000081565b6040519081526020016102e2565b34801561039b57600080fd5b50600a546103b690600160601b90046001600160601b031681565b6040516001600160601b0390911681526020016102e2565b3480156103da57600080fd5b506002546103ee906001600160a01b031681565b6040516001600160a01b0390911681526020016102e2565b34801561041257600080fd5b506103b67f000000000000000000000000000000000000000000000000000000000000000081565b34801561044657600080fd5b5061030b610455366004612fa9565b610e90565b34801561046657600080fd5b5061047a610475366004612fc6565b610fe4565b60405190151581526020016102e2565b34801561049657600080fd5b5061030b6104a5366004612fa9565b610fff565b3480156104b657600080fd5b506104bf606481565b60405161ffff90911681526020016102e2565b3480156104de57600080fd5b5061030b6104ed366004612fdf565b611181565b3480156104fe57600080fd5b506003546103ee906001600160a01b031681565b34801561051e57600080fd5b5061030b6111e1565b34801561053357600080fd5b5061030b610542366004612f57565b611290565b34801561055357600080fd5b5061030b610562366004612fa9565b6112b4565b34801561057357600080fd5b50600a546103b6906001600160601b031681565b34801561059357600080fd5b5061030b6113cf565b3480156105a857600080fd5b506000546001600160a01b03166103ee565b3480156105c657600080fd5b5061047a6105d5366004612f57565b611458565b61030b6105e8366004612fc6565b611486565b3480156105f957600080fd5b5061038161060836600461300d565b6115aa565b34801561061957600080fd5b5060075461062d906001600160401b031681565b6040516001600160401b0390911681526020016102e2565b34801561065157600080fd5b5061038161180e565b34801561066657600080fd5b5061030b610675366004613047565b6119e4565b34801561068657600080fd5b5061030b610695366004612fc6565b611b55565b3480156106a657600080fd5b506106ba6106b5366004612f87565b611b9d565b6040516102e2919061310a565b3480156106d357600080fd5b5061030b6106e2366004612fc6565b611c9e565b3480156106f357600080fd5b5061030b610702366004612f57565b611da2565b34801561071357600080fd5b5061030b610722366004612f57565b611e95565b34801561073357600080fd5b5061030b610742366004612f57565b612123565b34801561075357600080fd5b50610767610762366004612fc6565b6121bd565b6040516102e295949392919061311d565b34801561078457600080fd5b506103b67f000000000000000000000000000000000000000000000000000000000000000081565b3480156107b857600080fd5b5061030b6107c7366004612fa9565b6122ab565b3480156107d857600080fd5b5061030b6107e7366004612fa9565b612475565b60005a6000858152601060205260408120549192500361081f576040516341abc80160e01b815260040160405180910390fd5b6000848152601060209081526040808320815160808101835281548152600182015463ffffffff80821695830195909552640100000000900490931691830191909152600281018054606084019190610877906131a3565b80601f01602080910402602001604051908101604052809291908181526020018280546108a3906131a3565b80156108f05780601f106108c5576101008083540402835291602001916108f0565b820191906000526020600020905b8154815290600101906020018083116108d357829003601f168201915b505050505081525050905082516000036109c957806040015163ffffffff166001600160401b0381111561092657610926612e4e565b60405190808252806020026020018201604052801561094f578160200160208202803683370190505b50925060005b816040015163ffffffff168110156109c35760408051602081018890529081018290526060016040516020818303038152906040528051906020012060001c8482815181106109a6576109a66131dd565b6020908102919091010152806109bb81613209565b915050610955565b506109f4565b806040015163ffffffff168351146109f457604051631f9efadb60e11b815260040160405180910390fd5b600080631fe543e360e01b8786604051602401610a12929190613222565b60408051601f19818403018152918152602080830180516001600160e01b03166001600160e01b031990951694909417909352600c805466ff0000000000001916600160301b1790559185015191519092506000916001600160a01b0389169163ffffffff90911690610a86908590613267565b60006040518083038160008787f1925050503d8060008114610ac4576040519150601f19603f3d011682016040523d82523d6000602084013e610ac9565b606091505b5050600c805466ff0000000000001916905560608501518051919250600091610af490600190613283565b81518110610b0457610b046131dd565b60209101015160f81c600114905060007f00000000000000000000000000000000000000000000000000000000000000006001600160601b03165a610b499089613283565b610b539190613296565b610b86906001600160601b037f0000000000000000000000000000000000000000000000000000000000000000166132ad565b905081610bcd577f0000000000000000000000000000000000000000000000000000000000000000610bc082670de0b6b3a7640000613296565b610bca91906132c0565b90505b85518190610bde9082908590612489565b60008b815260106020526040812081815560018101805467ffffffffffffffff1916905590610c106002830182612d6b565b50508651604080518d81526001600160601b03841660208201528515158183015286151560608201526000608082015290518d917faeb4b4786571e184246d39587f659abf0e26f41f6a3358692250382c0cdb47b7919081900360a00190a35050505050505050505050565b81610c86816125e6565b610c8e612650565b600080610c9a8561267d565b915091506000846001600160a01b0316826001600160601b031660405160006040518083038185875af1925050503d8060008114610cf4576040519150601f19603f3d011682016040523d82523d6000602084013e610cf9565b606091505b5050905080610d1b5760405163950b247960e01b815260040160405180910390fd5b604080516001600160a01b03871681526001600160601b03808616602083015284169181019190915286907f8c74ce8b8cf87f5eb001275c8be27eb34ea2b62bfab6814fcc62192bb63e81c4906060015b60405180910390a2505050505050565b6000828152600560205260409020546001600160a01b0316610db157604051630fb532db60e11b815260040160405180910390fd5b600082815260066020526040812080546001600160601b031691839190610dd883856132e2565b92506101000a8154816001600160601b0302191690836001600160601b0316021790555081600a60008282829054906101000a90046001600160601b0316610e2091906132e2565b92506101000a8154816001600160601b0302191690836001600160601b03160217905550827f1ced9348ff549fceab2ac57cd3a9de38edaaab274b725ee82c23e8fc8c4eec7a828484610e7391906132ad565b6040805192835260208301919091520160405180910390a2505050565b610e98612650565b610ea061282f565b600b54600160601b90046001600160601b0316600003610ed357604051631e9acf1760e31b815260040160405180910390fd5b600b8054600160601b90046001600160601b0316908190600c610ef68380613302565b92506101000a8154816001600160601b0302191690836001600160601b0316021790555080600a600c8282829054906101000a90046001600160601b0316610f3e9190613302565b92506101000a8154816001600160601b0302191690836001600160601b031602179055506000826001600160a01b0316826001600160601b031660405160006040518083038185875af1925050503d8060008114610fb8576040519150601f19603f3d011682016040523d82523d6000602084013e610fbd565b606091505b5050905080610fdf5760405163950b247960e01b815260040160405180910390fd5b505050565b600060405163d623472560e01b815260040160405180910390fd5b611007612650565b61100f61282f565b6002546001600160a01b03166110385760405163c1f0c0a160e01b815260040160405180910390fd5b600b546001600160601b031660000361106457604051631e9acf1760e31b815260040160405180910390fd5b600b80546001600160601b031690819060006110808380613302565b92506101000a8154816001600160601b0302191690836001600160601b0316021790555080600a60008282829054906101000a90046001600160601b03166110c89190613302565b82546101009290920a6001600160601b0381810219909316918316021790915560025460405163a9059cbb60e01b81526001600160a01b03868116600483015292851660248201529116915063a9059cbb906044016020604051808303816000875af115801561113c573d6000803e3d6000fd5b505050506040513d601f19601f820116820180604052508101906111609190613330565b61117d57604051631e9acf1760e31b815260040160405180910390fd5b5050565b61118961282f565b6002546001600160a01b0316156111b357604051631688c53760e11b815260040160405180910390fd5b600280546001600160a01b039384166001600160a01b03199182161790915560038054929093169116179055565b6001546001600160a01b031633146112395760405162461bcd60e51b815260206004820152601660248201527526bab9ba10313290383937b837b9b2b21037bbb732b960511b60448201526064015b60405180910390fd5b60008054336001600160a01b0319808316821784556001805490911690556040516001600160a01b0390921692909183917f8be0079c531659141344cd1fd0a4f28419497f9722a3daafe3b4186f6b6457e091a350565b611298612650565b60408051600081526020810190915261117d90839083906107ec565b6112bc61282f565b600a544790600160601b90046001600160601b0316818111156112fc576040516354ced18160e11b81526004810182905260248101839052604401611230565b81811015610fdf5760006113108284613283565b90506000846001600160a01b03168260405160006040518083038185875af1925050503d806000811461135f576040519150601f19603f3d011682016040523d82523d6000602084013e611364565b606091505b50509050806113865760405163950b247960e01b815260040160405180910390fd5b604080516001600160a01b0387168152602081018490527f4aed7c8eed0496c8c19ea2681fcca25741c1602342e38b045d9f1e8e905d2e9c910160405180910390a15050505050565b6113d761282f565b6040805161012081018252600080825260208201819052818301819052606082018190526080820181905260a0820181905260c0820181905260e08201819052610100909101819052600c80546001600160c81b031916905590517f4b2974a542484cba2783812ff8033f7fc682cac2fe0905c28c5e27869b3155be9190a1565b6001600160a01b038116600090815260046020908152604080832085845290915290205460ff165b92915050565b61148e612650565b6000818152600560205260409020546001600160a01b03166114c357604051630fb532db60e11b815260040160405180910390fd5b60008181526006602052604090208054600160601b90046001600160601b0316903490600c6114f283856132e2565b92506101000a8154816001600160601b0302191690836001600160601b0316021790555034600a600c8282829054906101000a90046001600160601b031661153a91906132e2565b92506101000a8154816001600160601b0302191690836001600160601b03160217905550817f7603b205d03651ee812f803fccde89f1012e545a9c99f0abfea9cedd0fd8e90282348461158d91906132ad565b604080519283526020830191909152015b60405180910390a25050565b60006115b4612650565b8160200135336115c48282611458565b6115f3576040516379bfd40160e01b8152600481018390526001600160a01b0382166024820152604401611230565b602080850135600081815260059092526040909120546001600160a01b031661162f57604051630fb532db60e11b815260040160405180910390fd5b600e80546000918261164083613209565b90915550600f8054919250600091908261165983613209565b909155509050600061167e61167961167460a08b018b61334d565b612882565b61290a565b90506040518060800160405280896020013581526020018960600160208101906116a8919061339a565b63ffffffff1681526020016116c360a08b0160808c0161339a565b63ffffffff1681526020016116db60a08b018b61334d565b8080601f01602080910402602001604051908101604052809392919081815260200183838082843760009201829052509390945250508581526010602090815260409182902084518155908401516001820180549386015163ffffffff9081166401000000000267ffffffffffffffff199095169216919091179290921790915560608301519091506002820190611773908261340e565b50905050336001600160a01b0316886020013589600001357feb0e3652e0f44f417695e6e90f2f42c99b65cd7169074c5a654b16b9748c3a4e86868d60400160208101906117c191906134cd565b8e60600160208101906117d4919061339a565b8f60800160208101906117e7919061339a565b896040516117fa969594939291906134f1565b60405180910390a450909695505050505050565b6000611818612650565b6007546001600160401b031633611830600143613283565b6040516bffffffffffffffffffffffff19606093841b81166020830152914060348201523090921b1660548201526001600160c01b031960c083901b16606882015260700160408051601f198184030181529190528051602090910120915061189a816001613555565b6007805467ffffffffffffffff19166001600160401b03928316179055604080516000808252608082018352602080830182815283850183815260608086018581528a86526006855287862093518454935191516001600160601b039182166001600160c01b031990951694909417600160601b9190921602176001600160c01b0316600160c01b9290981691909102969096179055835194850184523385528481018281528585018481528884526005835294909220855181546001600160a01b03199081166001600160a01b0392831617835593516001830180549095169116179092559251805192949391926119999260028501920190612da5565b506119a99150600890508461297b565b5060405133815283907f1d3015d7ba850fa198dc7b1a3f5d42779313a681035f77c8c03764c61005518d9060200160405180910390a2505090565b6119ec612650565b6002546001600160a01b03163314611a17576040516344b0e3c360e01b815260040160405180910390fd5b60208114611a3857604051638129bbcd60e01b815260040160405180910390fd5b6000611a4682840184612fc6565b6000818152600560205260409020549091506001600160a01b0316611a7e57604051630fb532db60e11b815260040160405180910390fd5b600081815260066020526040812080546001600160601b031691869190611aa583856132e2565b92506101000a8154816001600160601b0302191690836001600160601b0316021790555084600a60008282829054906101000a90046001600160601b0316611aed91906132e2565b92506101000a8154816001600160601b0302191690836001600160601b03160217905550817f1ced9348ff549fceab2ac57cd3a9de38edaaab274b725ee82c23e8fc8c4eec7a828784611b4091906132ad565b60408051928352602083019190915201610d6c565b611b5d61282f565b6000818152600560205260409020546001600160a01b031680611b9357604051630fb532db60e11b815260040160405180910390fd5b61117d8282612987565b60606000611bab6008612b2d565b9050808410611bcd57604051631390f2a160e01b815260040160405180910390fd5b6000611bd984866132ad565b905081811180611be7575083155b611bf15780611bf3565b815b90506000611c018683613283565b9050806001600160401b03811115611c1b57611c1b612e4e565b604051908082528060200260200182016040528015611c44578160200160208202803683370190505b50935060005b81811015611c9457611c67611c5f88836132ad565b600890612b37565b858281518110611c7957611c796131dd565b6020908102919091010152611c8d81613209565b9050611c4a565b5050505092915050565b611ca6612650565b6000818152600560205260409020546001600160a01b031680611cdc57604051630fb532db60e11b815260040160405180910390fd5b6000828152600560205260409020600101546001600160a01b03163314611d35576000828152600560205260409081902060010154905163d084e97560e01b81526001600160a01b039091166004820152602401611230565b6000828152600560209081526040918290208054336001600160a01b03199182168117835560019092018054909116905582516001600160a01b03851681529182015283917fd4114ab6e9af9f597c52041f32d62dc57c5c4e4c0d4427006069635e216c9386910161159e565b81611dac816125e6565b611db4612650565b6001600160a01b03821660009081526004602090815260408083208684529091529020805460ff1615611de75750505050565b6000848152600560205260409020600201805460631901611e1b576040516305a48e0f60e01b815260040160405180910390fd5b8154600160ff199091168117835581549081018255600082815260209081902090910180546001600160a01b0319166001600160a01b03871690811790915560405190815286917f1e980d04aa7648e205713e5e8ea3808672ac163d10936d36f91b2c88ac1575e191015b60405180910390a25050505050565b81611e9f816125e6565b8282611eab8282611458565b611eda576040516379bfd40160e01b8152600481018390526001600160a01b0382166024820152604401611230565b611ee2612650565b6001600160a01b038416600090815260046020908152604080832088845290915290205460ff16611f38576040516379bfd40160e01b8152600481018690526001600160a01b0385166024820152604401611230565b600085815260056020908152604080832060020180548251818502810185019093528083529192909190830182828015611f9b57602002820191906000526020600020905b81546001600160a01b03168152600190910190602001808311611f7d575b50505050509050600060018251611fb29190613283565b905060005b82518110156120bb57866001600160a01b0316838281518110611fdc57611fdc6131dd565b60200260200101516001600160a01b0316036120ab576000838381518110612006576120066131dd565b6020026020010151905080600560008b81526020019081526020016000206002018381548110612038576120386131dd565b600091825260208083209190910180546001600160a01b0319166001600160a01b0394909416939093179092558a815260059091526040902060020180548061208357612083613575565b600082815260209020810160001990810180546001600160a01b0319169055019055506120bb565b6120b481613209565b9050611fb7565b506001600160a01b03861660008181526004602090815260408083208b8452825291829020805460ff19169055905191825288917f32158c6058347c1601b2d12bc696ac6901d8a9a9aa3ba10c27ab0a983e8425a7910160405180910390a250505050505050565b8161212d816125e6565b612135612650565b600083815260056020526040902060018101546001600160a01b038481169116146121b7576001810180546001600160a01b0319166001600160a01b03851690811790915560408051338152602081019290925285917f21a4dad170a6bf476c31bbcf4a16628295b0e450672eec25d7c93308e05344a1910160405180910390a25b50505050565b600081815260056020526040812054819081906001600160a01b03166060816121f957604051630fb532db60e11b815260040160405180910390fd5b600086815260066020908152604080832054600583529281902060020180548251818502810185019093528083526001600160601b0380861695600160601b810490911694600160c01b9091046001600160401b031693889392909183919083018282801561229157602002820191906000526020600020905b81546001600160a01b03168152600190910190602001808311612273575b505050505090509450945094509450945091939590929450565b6122b361282f565b6002546001600160a01b03166122dc5760405163c1f0c0a160e01b815260040160405180910390fd5b6002546040516370a0823160e01b81523060048201526000916001600160a01b0316906370a0823190602401602060405180830381865afa158015612325573d6000803e3d6000fd5b505050506040513d601f19601f82011682018060405250810190612349919061358b565b600a549091506001600160601b031681811115612383576040516354ced18160e11b81526004810182905260248101839052604401611230565b81811015610fdf5760006123978284613283565b60025460405163a9059cbb60e01b81526001600160a01b0387811660048301526024820184905292935091169063a9059cbb906044016020604051808303816000875af11580156123ec573d6000803e3d6000fd5b505050506040513d601f19601f820116820180604052508101906124109190613330565b61242d57604051631f01ff1360e21b815260040160405180910390fd5b604080516001600160a01b0386168152602081018390527f59bfc682b673f8cbf945f1e454df9334834abf7dfe7f92237ca29ecb9b436600910160405180910390a150505050565b61247d61282f565b61248681612b43565b50565b6000818152600660205260409020821561254d5780546001600160601b03600160601b90910481169085168110156124d457604051631e9acf1760e31b815260040160405180910390fd5b6124de8582613302565b82546bffffffffffffffffffffffff60601b1916600160601b6001600160601b039283168102919091178455600b805488939192600c926125239286929004166132e2565b92506101000a8154816001600160601b0302191690836001600160601b03160217905550506121b7565b80546001600160601b0390811690851681101561257d57604051631e9acf1760e31b815260040160405180910390fd5b6125878582613302565b82546bffffffffffffffffffffffff19166001600160601b03918216178355600b805487926000916125bb918591166132e2565b92506101000a8154816001600160601b0302191690836001600160601b031602179055505050505050565b6000818152600560205260409020546001600160a01b03168061261c57604051630fb532db60e11b815260040160405180910390fd5b336001600160a01b0382161461117d57604051636c51fda960e11b81526001600160a01b0382166004820152602401611230565b600c54600160301b900460ff161561267b5760405163769dd35360e11b815260040160405180910390fd5b565b60008181526005602090815260408083206006909252822054600290910180546001600160601b0380841694600160601b90940416925b8181101561272957600460008483815481106126d2576126d26131dd565b60009182526020808320909101546001600160a01b0316835282810193909352604091820181208982529092529020805470ffffffffffffffffffffffffffffffffff1916905561272281613209565b90506126b4565b50600085815260056020526040812080546001600160a01b031990811682556001820180549091169055906127616002830182612e0a565b505060008581526006602052604081205561277d600886612bec565b506001600160601b038416156127d057600a80548591906000906127ab9084906001600160601b0316613302565b92506101000a8154816001600160601b0302191690836001600160601b031602179055505b6001600160601b038316156128285782600a600c8282829054906101000a90046001600160601b03166128039190613302565b92506101000a8154816001600160601b0302191690836001600160601b031602179055505b5050915091565b6000546001600160a01b0316331461267b5760405162461bcd60e51b815260206004820152601660248201527527b7363c9031b0b63630b1363290313c9037bbb732b960511b6044820152606401611230565b60408051602081019091526000815260008290036128af5750604080516020810190915260008152611480565b63125fa26760e31b6128c183856135a4565b6001600160e01b031916146128e957604051632923fee760e11b815260040160405180910390fd5b6128f682600481866135d4565b81019061290391906135fe565b9392505050565b60607f92fd13387c7fe7befbc38d303d6468778fb9731bc4583f17d92989c6fcfdeaaa8260405160240161294391511515815260200190565b60408051601f198184030181529190526020810180516001600160e01b03166001600160e01b03199093169290921790915292915050565b60006129038383612bf8565b6000806129938461267d565b60025491935091506001600160a01b0316158015906129ba57506001600160601b03821615155b15612a5b5760025460405163a9059cbb60e01b81526001600160a01b0385811660048301526001600160601b03851660248301529091169063a9059cbb906044016020604051808303816000875af1158015612a1a573d6000803e3d6000fd5b505050506040513d601f19601f82011682018060405250810190612a3e9190613330565b612a5b57604051631e9acf1760e31b815260040160405180910390fd5b6000836001600160a01b0316826001600160601b031660405160006040518083038185875af1925050503d8060008114612ab1576040519150601f19603f3d011682016040523d82523d6000602084013e612ab6565b606091505b5050905080612ad85760405163950b247960e01b815260040160405180910390fd5b604080516001600160a01b03861681526001600160601b03808616602083015284169181019190915285907f8c74ce8b8cf87f5eb001275c8be27eb34ea2b62bfab6814fcc62192bb63e81c490606001611e86565b6000611480825490565b60006129038383612c47565b336001600160a01b03821603612b9b5760405162461bcd60e51b815260206004820152601760248201527f43616e6e6f74207472616e7366657220746f2073656c660000000000000000006044820152606401611230565b600180546001600160a01b0319166001600160a01b0383811691821790925560008054604051929316917fed8889f560326eb138920d842192f0eb3dd22b4f139c87a2c57538e05bae12789190a350565b60006129038383612c71565b6000818152600183016020526040812054612c3f57508154600181810184556000848152602080822090930184905584548482528286019093526040902091909155611480565b506000611480565b6000826000018281548110612c5e57612c5e6131dd565b9060005260206000200154905092915050565b60008181526001830160205260408120548015612d5a576000612c95600183613283565b8554909150600090612ca990600190613283565b9050818114612d0e576000866000018281548110612cc957612cc96131dd565b9060005260206000200154905080876000018481548110612cec57612cec6131dd565b6000918252602080832090910192909255918252600188019052604090208390555b8554869080612d1f57612d1f613575565b600190038181906000526020600020016000905590558560010160008681526020019081526020016000206000905560019350505050611480565b6000915050611480565b5092915050565b508054612d77906131a3565b6000825580601f10612d87575050565b601f0160209004906000526020600020908101906124869190612e24565b828054828255906000526020600020908101928215612dfa579160200282015b82811115612dfa57825182546001600160a01b0319166001600160a01b03909116178255602090920191600190910190612dc5565b50612e06929150612e24565b5090565b508054600082559060005260206000209081019061248691905b5b80821115612e065760008155600101612e25565b6001600160a01b038116811461248657600080fd5b634e487b7160e01b600052604160045260246000fd5b604051601f8201601f191681016001600160401b0381118282101715612e8c57612e8c612e4e565b604052919050565b600080600060608486031215612ea957600080fd5b83359250602080850135612ebc81612e39565b925060408501356001600160401b0380821115612ed857600080fd5b818701915087601f830112612eec57600080fd5b813581811115612efe57612efe612e4e565b8060051b9150612f0f848301612e64565b818152918301840191848101908a841115612f2957600080fd5b938501935b83851015612f4757843582529385019390850190612f2e565b8096505050505050509250925092565b60008060408385031215612f6a57600080fd5b823591506020830135612f7c81612e39565b809150509250929050565b60008060408385031215612f9a57600080fd5b50508035926020909101359150565b600060208284031215612fbb57600080fd5b813561290381612e39565b600060208284031215612fd857600080fd5b5035919050565b60008060408385031215612ff257600080fd5b8235612ffd81612e39565b91506020830135612f7c81612e39565b60006020828403121561301f57600080fd5b81356001600160401b0381111561303557600080fd5b820160c0818503121561290357600080fd5b6000806000806060858703121561305d57600080fd5b843561306881612e39565b93506020850135925060408501356001600160401b038082111561308b57600080fd5b818701915087601f83011261309f57600080fd5b8135818111156130ae57600080fd5b8860208285010111156130c057600080fd5b95989497505060200194505050565b600081518084526020808501945080840160005b838110156130ff578151875295820195908201906001016130e3565b509495945050505050565b60208152600061290360208301846130cf565b6001600160601b03868116825285166020808301919091526001600160401b03851660408301526001600160a01b03848116606084015260a0608084018190528451908401819052600092858101929160c0860190855b81811015613192578551851683529483019491830191600101613174565b50909b9a5050505050505050505050565b600181811c908216806131b757607f821691505b6020821081036131d757634e487b7160e01b600052602260045260246000fd5b50919050565b634e487b7160e01b600052603260045260246000fd5b634e487b7160e01b600052601160045260246000fd5b60006001820161321b5761321b6131f3565b5060010190565b82815260406020820152600061323b60408301846130cf565b949350505050565b60005b8381101561325e578181015183820152602001613246565b50506000910152565b60008251613279818460208701613243565b9190910192915050565b81810381811115611480576114806131f3565b8082028115828204841417611480576114806131f3565b80820180821115611480576114806131f3565b6000826132dd57634e487b7160e01b600052601260045260246000fd5b500490565b6001600160601b03818116838216019080821115612d6457612d646131f3565b6001600160601b03828116828216039080821115612d6457612d646131f3565b801515811461248657600080fd5b60006020828403121561334257600080fd5b815161290381613322565b6000808335601e1984360301811261336457600080fd5b8301803591506001600160401b0382111561337e57600080fd5b60200191503681900382131561339357600080fd5b9250929050565b6000602082840312156133ac57600080fd5b813563ffffffff8116811461290357600080fd5b601f821115610fdf57600081815260208120601f850160051c810160208610156133e75750805b601f850160051c820191505b81811015613406578281556001016133f3565b505050505050565b81516001600160401b0381111561342757613427612e4e565b61343b8161343584546131a3565b846133c0565b602080601f83116001811461347057600084156134585750858301515b600019600386901b1c1916600185901b178555613406565b600085815260208120601f198616915b8281101561349f57888601518255948401946001909101908401613480565b50858210156134bd5787850151600019600388901b60f8161c191681555b5050505050600190811b01905550565b6000602082840312156134df57600080fd5b813561ffff8116811461290357600080fd5b86815285602082015261ffff85166040820152600063ffffffff808616606084015280851660808401525060c060a083015282518060c084015261353c8160e0850160208701613243565b601f01601f19169190910160e001979650505050505050565b6001600160401b03818116838216019080821115612d6457612d646131f3565b634e487b7160e01b600052603160045260246000fd5b60006020828403121561359d57600080fd5b5051919050565b6001600160e01b031981358181169160048510156135cc5780818660040360031b1b83161692505b505092915050565b600080858511156135e457600080fd5b838611156135f157600080fd5b5050820193919092039150565b60006020828403121561361057600080fd5b604051602081018181106001600160401b038211171561363257613632612e4e565b604052823561364081613322565b8152939250505056fea2646970667358221220be8d812a6bc3b0f230b15b850e51613741b9439ce5a8df86f4dbb42156f007a364736f6c63430008130033","linkReferences":{}},"methodIdentifiers":{"LINK()":"1b6b6d23","LINK_NATIVE_FEED()":"72e9d565","MAX_CONSUMERS()":"64d51a2a","acceptOwnership()":"79ba5097","acceptSubscriptionOwnerTransfer(uint256)":"b2a7cac5","addConsumer(uint256,address)":"bec4c08c","cancelSubscription(uint256,address)":"0ae09540","consumerIsAdded(uint256,address)":"953e9c75","createSubscription()":"a21a23e4","fulfillRandomWords(uint256,address)":"808974ff","fulfillRandomWordsWithOverride(uint256,address,uint256[])":"08e3898e","fundSubscription(uint256,uint256)":"115e3c0d","fundSubscriptionWithNative(uint256)":"95b55cfc","getActiveSubscriptionIds(uint256,uint256)":"aefb212f","getSubscription(uint256)":"dc311dd3","i_base_fee()":"1eebc117","i_gas_price()":"dcab3dcf","i_wei_per_unit_link()":"13478329","onTokenTransfer(address,uint256,bytes)":"a4c0ed36","owner()":"8da5cb5b","ownerCancelSubscription(uint256)":"aa433aff","pendingRequestExists(uint256)":"41af6c87","recoverFunds(address)":"e72f6e30","recoverNativeFunds(address)":"8402595e","removeConsumer(uint256,address)":"cb631797","requestRandomWords((bytes32,uint256,uint16,uint32,uint32,bytes))":"9b1c385e","requestSubscriptionOwnerTransfer(uint256,address)":"dac83d29","s_config()":"088070f5","s_currentSubNonce()":"9d40a6fd","s_totalBalance()":"86fe91c7","s_totalNativeBalance()":"18e3dd27","setConfig()":"8b673e7a","setLINKAndLINKNativeFeed(address,address)":"65982744","transferOwnership(address)":"f2fde38b","withdraw(address)":"51cff8d9","withdrawNative(address)":"2f622e6b"},"id":14}